:100000000C945A000C946C000C946C000C946C00D2
:100010000C946C000C946C000C946C000C94E40038
:100020000C946C000C946C000C946C000C946C00A0
:100030000C946C000C946C000C946C000C946C0090
:100040000C946C000C946C000C946C000C946C0080
:100050000C946C000C946C000C946C000C946C0070
:100060000C946C000C946C000C946C000C946C0060
:100070000C946C000C946C000C946C000C946C0050
:100080000C946C000C946C000C946C000C946C0040
:100090000C946C000C946C000C946C000C946C0030
:1000A0000C946C000C946C000C946C000C946C0020
:1000B0000C946C0011241FBECFEFD8E0DEBFCDBF83
:1000C00021E0A0E0B1E001C01D92A430B207E1F749
:1000D0000E9409010C9443020C94000082E080937A
:1000E000B00094E09093B10099EF9093B3008093A7
:1000F000700008958F929F92AF92BF92CF92DF923D
:10010000EF92FF923FB7F89421E060E070E0CB01FE
:10011000C12CD12C76010EC0C0900001D0900101FD
:10012000E0900201F09003016091B20070E080E085
:1001300090E020E02111F0CF3FBFCC0CDD1CEE1C85
:10014000FF1C0E941F014B015C016091B30070E035
:1001500080E090E00E94210120E030E040E05FE399
:100160000E9461019B01AC01C501B4010E945C01C8
:1001700088233CF0C701B6016F5F7F4F8F4F9F4FC1
:1001800002C0C701B601FF90EF90DF90CF90BF9003
:10019000AF909F908F900895CF92DF92EF92FF9251
:1001A0006B017C010E947A00C60ED71EE81EF91E64
:1001B0000E947A006C157D058E059F05C8F3FF909F
:1001C000EF90DF90CF9008951F920F920FB60F928D
:1001D00011248F939F93AF93BF93809100019091CF
:1001E0000101A0910201B09103010196A11DB11D71
:1001F0008093000190930101A0930201B093030149
:10020000BF91AF919F918F910F900FBE0F901F9054
:1002100018950E946E00789481E084B915B815B8DD
:1002200068EE73E080E090E00E94CC0081E085B948
:1002300068EE73E080E090E00E94CC00F0CFE8949C
:1002400009C097FB3EF490958095709561957F4F1E
:100250008F4F9F4F9923A9F0F92F96E9BB279395CC
:10026000F695879577956795B795F111F8CFFAF4DC
:10027000BB0F11F460FF1BC06F5F7F4F8F4F9F4F0D
:1002800016C0882311F096E911C0772321F09EE86B
:10029000872F762F05C0662371F096E8862F70E0D1
:1002A00060E02AF09A95660F771F881FDAF7880FAB
:1002B0009695879597F908950E94CE0108F48FEFDF
:1002C00008950E9474010C9409020E94FB0138F009
:1002D0000E94020220F0952311F00C94F2010C947C
:1002E000F80111240C943D020E941A0270F3959FAC
:1002F000C1F3950F50E0551F629FF001729FBB271D
:10030000F00DB11D639FAA27F00DB11DAA1F649FB8
:100310006627B00DA11D661F829F2227B00DA11D6B
:10032000621F739FB00DA11D621F839FA00D611DF1
:10033000221F749F3327A00D611D231F849F600D12
:10034000211D822F762F6A2F11249F5750409AF03B
:10035000F1F088234AF0EE0FFF1FBB1F661F771FC7
:10036000881F91505040A9F79E3F510580F00C9492
:10037000F2010C943D025F3FE4F3983ED4F386957E
:1003800077956795B795F795E7959F5FC1F7FE2B32
:10039000880F911D9695879597F90895990F0008F4
:1003A000550FAA0BE0E8FEEF16161706E807F90747
:1003B000C0F012161306E407F50798F0621B730BE2
:1003C000840B950B39F40A2661F0232B242B252B63
:1003D00021F408950A2609F4A140A6958FEF811D06
:1003E000811D089597F99F6780E870E060E00895A7
:1003F0009FEF80EC089500240A941616170618063D
:100400000906089500240A94121613061406050618
:100410000895092E0394000C11F4882352F0BB0FA9
:1004200040F4BF2B11F460FF04C06F5F7F4F8F4F0C
:100430009F4F089557FD9058440F551F59F05F3F47
:1004400071F04795880F97FB991F61F09F3F79F0F6
:1004500087950895121613061406551FF2CF469578
:10046000F1DF08C0161617061806991FF1CF8695FA
:100470007105610508940895E894BB2766277727DE
:0A048000CB0197F90895F894FFCF1F
:00000001FF
