:020000041000EA
:1000000000B5324B212058609868022188439860DF
:10001000D860186158612E4B002199600221596106
:100020000121F02299502B49196001219960352056
:1000300000F044F80222904214D00621196600F024
:1000400034F8196E01211966002018661A6600F04E
:100050002CF8196E196E196E052000F02FF8012189
:100060000842F9D1002199601B49196000215960AB
:100070001A491B48016001219960EB211966A021F2
:10008000196600F012F800219960164914480160C1
:100090000121996001BC002800D000471248134993
:1000A000086003C880F30888084703B5996A0420EC
:1000B0000142FBD001200142F8D103BD02B5186610
:1000C0001866FFF7F2FF186E186E02BD00000240BE
:1000D000000000180000070000035F00212200005C
:1000E000F4000018222000A00001001008ED00E03C
:1000F00000000000000000000000000074B24E7A12
:1001000000200420F7010010C3010010C5010010F9
:10011000C1010010C1010010C1010010C101001097
:10012000C1010010C1010010C1010010C701001081
:10013000C1010010C1010010C9010010CB01001065
:10014000CD010010CD010010CD010010CD01001037
:10015000CD010010CD010010CD010010CD01001027
:10016000CD010010CD010010CD010010CD01001017
:10017000CD010010CD010010CD010010CD01001007
:10018000CD010010CD010010CD010010CD010010F7
:10019000CD010010CD010010CD010010CD010010E7
:1001A000CD010010CD010010CD010010CD010010D7
:1001B000CD010010CD010010CD010010CD010010C7
:1001C00000BE00BE00BE00BE00BE00BEEFF3058054
:1001D000103800BEF2EB8871A4500010D45000100B
:1001E0003402001090A31AE700201F49086006C8D7
:1001F00081F3088810471D48006800282FD10DA4FE
:100200000ECC002902D000F012F8F9E71849194A7B
:10021000002000E001C19142FCD1174988471749ED
:1002200088471749884700BEFDE701C901C29A42C5
:10023000FBD37047D4500010C0000020680F00208E
:100240007C5F001000000420000004207C5F001090
:10025000001004200010042000000000704709482E
:1002600001F08AFF0047000008ED00E0000000D028
:10027000680F0020001D0020ED1F00105503001026
:10028000E52000105756000006005250ABB36053F3
:10029000484E001006005250861C0302584E0010B3
:1002A000060052505422A29D6C4E00100500525080
:1002B000DE65F4687C5F0010F8B5C0460448054B65
:1002C00010B5834203D0044B002B00D0984710BDDB
:1002D000680F0020680F0020000000000648074952
:1002E000091A8910CB0F591810B5491003D0044BC7
:1002F000002B00D0984710BD680F0020680F002029
:100300000000000010B5074C2378002B09D1FFF73F
:10031000D5FF054B002B02D0044800E000BF0123AD
:10032000237010BD7010002000000000404D001030
:10033000054B10B5002B03D00449054800E000BF71
:10034000FFF7CCFF10BDC046000000007410002075
:10035000404D0010F8B58025D024AD042E0002F0E9
:10036000ADF9192000F02AF82406074F6562A6614E
:10037000FA2000F0D1FE6561380002F069F9FA2038
:10038000800000F0C9FEF2E7584D0010094A8300D2
:1003900094464022634410B51C68C0006240C024EB
:1003A00014408022520113431C60034B9C4660445E
:1003B000416010BD04C00140004001400123D02233
:1003C0008340120693629361094A83009446402257
:1003D00063441968C0004A40C02111408022520184
:1003E00013431960034B9C460523604443607047E8
:1003F00004C0014000400140024B18688007C00F54
:100400007047C04600C00640F8B5EFF3108772B6DB
:100410000D4E3368002BFCD0BFF35F8F0725CB0850
:10042000C01801230D40AB401D000478254007D1C2
:1004300023430370BFF35F8F356087F31088F8BDE7
:10044000100001F053FEC0462C0100D0F8B5CE4696
:1004500047468C4680B5EFF3108872B6214D2C6864
:10046000002CFCD0BFF35F8F9A422CD807210125C6
:1004700011408D40D4080419267835421FD0072139
:100480008946063909E04D460F001540AF40D408B3
:10049000041926783D00374211D001329342F2D23E
:1004A00001204042BFF35F8F00220E4B1A6088F399
:1004B000108800280FDB0CBC90469946F8BD3543E8
:1004C00025701000EEE7BFF35F8F00232B6088F3E9
:1004D0001088012040426346002BECD0089801F0C0
:1004E00005FEC0462C0100D00021044B044ABFF396
:1004F0005F8F02C39342FAD17047C046000100D01B
:10050000800100D0044A1078431CDBB2172B00D9BD
:10051000102313707047C046500E002000B5054BE5
:1005200083B00100009318221F230348FFF78EFFBA
:1005300003B000BD904D0010301500200123834012
:10054000002904D0034A1360034A13607047034A2A
:100550001360FBE780E200E000E100E080E100E002
:1005600001238340014A13607047C04600E200E067
:10057000084B10309B688000C358002B07D0064AF8
:1005800000209B1A2F229A424041C0B2704700209F
:10059000FCE7C04600ED00E0540E0020024B103096
:1005A0009B688000C058704700ED00E070B50D00FA
:1005B000EFF3108672B60F4A1368002BFCD0BFF31E
:1005C0005F8F0D4B10309B6884001B590B4A934280
:1005D00003D09D4201D001F0A1FD074B9B681D5146
:1005E000BFF35F8FBFF35F8F0022024B1A6086F369
:1005F000108870BD240100D000ED00E0CD01001096
:10060000F8B557464546DE464E468A46E0B5904622
:100610000700EFF3108972B65F4A1368002BFCD015
:10062000BFF35F8F00205D4B18569B46002800DA11
:10063000A2E05A4644005A4D2418A4002E19B3795A
:1006400010371370574BBA009B68934699584B1B51
:100650002F2B41D801230A009A43D379944643456E
:1006600014D90627D7571300002F06DA8DE0062786
:10067000DF571A00002F00DA87E07B00DB199B00B0
:10068000EB18DF794745F2D8002A51D1464A634634
:100690005B1B5B415A43120D444BA11C3380444BFE
:1006A0006918043B5B1A1B0542495B0D0B437380C1
:1006B00063460434043B2D195D1B43462D05F3713D
:1006C0006D0D53462943B180B27101216246B3607A
:1006D000394B3143136018E0384B994252D1334BB8
:1006E00002343380324B2D19043B5D1B2D05314BF9
:1006F0006D0D1D43324B0121B380FF23B37143467F
:10070000F37153467580B36031435A46254B9B685D
:100710009950BFF35F8FBFF35F8F00221E4B1A60AB
:1007200089F310883CBC90469946A246AB46F8BD7A
:100730000627D757131D9C46002F2BDB04342D1999
:10074000E024938824025B051B1563445B1B1B0597
:100750005B0D23436546341F641B2405154D640D52
:100760002C4394809071B3804346F3715346124AF0
:10077000B7713260B360C8E701F0D0FC5B4600207F
:10078000185656E701F0CAFCA9E71A1D94461A004C
:100790000C4BDFE70B4BDDE7240100D0351A0020BE
:1007A000540E002000ED00E0AAAA000000A1FFFF07
:1007B000840E002000E0FFFF01488047CD010010BB
:1007C00001BDFFFF01BD0000F0B54546DE465746BE
:1007D0004E46E0B50D0083B0EFF3108972B6584A6B
:1007E0001368002BFCD0BFF35F8F564B9A68030051
:1007F00010339F00D459544A9046944234D0AC42AE
:1008000045D0524EA21B2F2A2ED80122824092465A
:1008100051464F4A12681140019151464D4A1160AC
:10082000BFF35F8FEFF305829346002A35D1012392
:10083000220006219A43936851569D420AD16AE0EC
:100840004B005B1806219B00F31898685956A84284
:1008500028D01A000029F3DA019B002B19D0524648
:100860003D4B1A603A4B1A60364B9B68DC51BFF324
:100870005F8FBFF35F8F0022314B1A6089F31088BE
:1008800003B03CBC90469946A246AB46F0BD14006E
:10089000EAE752462F4B1A60E6E79342C7D001F0D1
:1008A0003DFCC4E7002921DB4A00501880003518C0
:1008B0008046A8689860E879D87106202856987113
:1008C000002826DBAD88F01A6D052D15454440192A
:1008D000E0250005400D2D022843988052181F4B3B
:1008E0009200B6181A781970B271B5E75946002906
:1008F00017D1002A22D0FF319171194991801749EF
:100900000A789A71174A9B1B5B415A43120D0A7071
:10091000A2E71548E1E713000029C5DA5A46002A84
:100920000CD0124A1249D21A083A5002400D014323
:100930009980104952080A43DA808DE74446DEE781
:10094000240100D000ED00E0CD010010540E002085
:1009500000E100E080E100E080E200E0351A0020E4
:1009600001BDFFFFAAAA000001BD00008E0E0020FD
:1009700000F0FFFF00F8FFFFF0B5EFF30581012461
:100980000443EFF3108672B6214A1368002BFCD0A3
:10099000BFF35F8F1F4B204A0500ED1A6D416A437C
:1009A000120D1E4D8900AF6852B27F58A7421CD06D
:1009B0000621595691421CD012215956914222D0FB
:1009C0001E215956914220D02A2159560324914282
:1009D00010D0134B19781A708171BFF35F8F00220A
:1009E0000B4B1A6086F31088F0BDAB680D4C5C5061
:1009F000EFE700246100091989005B18FF21997154
:100A000009499980E5E70124F4E70224F2E7C046AA
:100A1000240100D0540E0020AAAA000000ED00E03E
:100A2000351A0020CD01001001BDFFFF054B064A1D
:100A30001360064A136053609360D360136153617F
:100A4000936170478080808000E400E004E400E06F
:100A500000B5074B83B00100009300220523054831
:100A6000FFF7F4FC002801DB1F23181A03B000BDB8
:100A7000AC4D00103A1A0020024B9C46614489009C
:100A8000016070474000003410B50400FFF73AFDE4
:100A900001002000FFF7F0FFFF232371BFF35F8FFA
:100AA00010BDC04610B50400FFF72CFD010020006A
:100AB000FFF7E2FFFF23A380BFF35F8F10BDC046A7
:100AC00010B504000120FFF729FD044B9C4660444B
:100AD00080002060BFF35F8F10BDC046400000342F
:100AE000034B9C46614489000160BFF35F8F7047F0
:100AF0004000003470B506000D00140000291ED01F
:100B0000002A1ED073688068984763006A001B192A
:100B10005219033B033A3168002808D0CB188A18D1
:100B20009D70117800290ED11470280008E08A18F1
:100B3000CB1894701978002900D051701D702000D6
:100B400070BD0800FCE7597028001470F8E7C04633
:100B500083680B4810B58446614462440901120160
:100B60009A18591854684B6801209C4201D802D049
:100B70000020C0B210BD12680B689A42F9D8F7E79E
:100B8000FFFFFF0F0A4B1968EFF3108072B60A6877
:100B9000002AFCD0BFF35F8F1B68BFF35F8F00227A
:100BA0001A6080F3108840BF002000217047C046C3
:100BB000001A0020F8B54746CE4680B514001D0047
:100BC0000BAA0AAB12781B78804691460768002B67
:100BD00012D1BE7B002E44D0720092193968033ABC
:100BE000891848783300B873002800D1F8730020C2
:100BF00088704870087003E01E005A00D218033A4B
:100C00001A4938008C464146896863448C461B016A
:100C100008996344996009991C605D60D9603B68DC
:100C20009C4600236244937053701370797B3200AA
:100C3000FFF760FF7873B04213D143462200187D5E
:100C40002B0000F07BFB041E07D04B46002B04D189
:100C500043463100186800F0F7FE0C9B002B00D0D3
:100C60001C7030000CBC90469946F8BDFFFFFF0F8A
:100C7000F0B5DE4657464E4645460023E0B58BB0FC
:100C80000893674B8200D45800239B46099000F0DC
:100C9000F3FA6268EFF3108572B61368002BFCD08C
:100CA000BFF35F8F23689C465B7B9946002B6CD01B
:100CB000A2685C4B90464B441B01984443461E6817
:100CC0005F6832003B00121A8B41002B67DD320057
:100CD0003B00099800F032FB0023002298460023D5
:100CE0000692079300239A466368BFF35F8F5A46C4
:100CF0001A6085F310885346002B08D10028C6D10E
:100D00000BB03CBC90469946A246AB46F0BD089B52
:100D1000414618024B461843D047626806000F0050
:100D2000EFF3108572B61368002BFCD0BFF35F8F12
:100D3000002F51DB33003B4302D02369002B62D1EB
:100D40002368DA7B002A07D051008A1819688C467C
:100D500049466244033A51709A7B002A01D14A46BF
:100D60009A734A46DA73E2684B469446013B634401
:100D70001A7801321A705B4623616368BFF35F8F94
:100D80005A461A6085F3108881E7002300229846AE
:100D9000002306920793002300209A46A4E7002B25
:100DA00001D1002A93D10021604600F06BFD43463B
:100DB0001A685B680692079343469B689A464346C7
:100DC000DB689846E3684B44013B1B7808931B02A1
:100DD00003432361002087E72369002BB0D0069AE4
:100DE000079B921BBB41002B15DB59460491012147
:100DF00003914946029141460191514620000091DC
:100E0000FFF7D8FEB7E700F037FA32003B001218C0
:100E10004B41002BE9DA0122034B5242E5E7C04681
:100E2000E4190020FFFFFF0FFFFFFF7F10B5144CF8
:100E30006368002B04D00A211248FFF71DFE10BD85
:100E40002300114A1021206800F03AFB032000F033
:100E500007FA032000F0E6FA0C49032000F028FA14
:100E6000FFF750FB0A4B9C4603232375D0231B0638
:100E70001B6860446375074B80006060DC60DAE7E4
:100E80009C0E0020001A0020510B0010710C001065
:100E900040000034E4190020004870479C0E0020F8
:100EA000F0B557464E46DE464546E0B583B0009263
:100EB00001930C9B06009B460EAB1B7800279946BE
:100EC00000239A467268EFF3108872B61368002BFD
:100ED000FCD0BFF35F8F3568AC7B002C63D0630020
:100EE0001B192A68033BD2185178A973002900D135
:100EF000E973977057701770B168374A8C4600983D
:100F00000199A21812016244106051605946916023
:100F10000D992800D1602A68944663449F705F70E1
:100F20001F70697B2200FFF7E5FD6873844245D09E
:100F3000F3681B19013B18787368BFF35F8F1F605C
:100F400088F310885346002B08D10002204303B0D9
:100F50003CBC90469946A246AB46F0BD4B46002BA2
:100F60002AD00D990020D84703000B4324D0040059
:100F70000D1E09DA009A019B121BAB4100920193EE
:100F8000002B09DBCA469DE700F076F924184D4195
:100F900000940195002DF5DA0123104C5B4200937B
:100FA0000194CA468EE77368BFF35F8F1C6088F3B5
:100FB000108801204042CAE70020C8E7307D009A2F
:100FC000019B00F0BBF982460028B1D021003068B7
:100FD00000F03AFDACE7C046FFFFFF0FFFFFFF7FC9
:100FE000F8B542680400EFF3108572B61368002B61
:100FF000FCD0BFF35F8FFF232068CEB2427B0B4053
:10100000B24208D007685A00BC46D2186244033A7C
:101010009278002A11D0E268090A94466344013BA1
:101020001B78C9B28B420ED000206368BFF35F8F7C
:1010300000221A6085F31088F8BD23698B42F3D132
:1010400022610020F1E7310000F0FEFCEDE7C04630
:10105000407D7047F0B504000D0006267642F71774
:10106000C64636196F4100B584B08F4214D811D0EE
:1010700000F002F932003B00121A8B41002B15DC04
:10108000002B3ED02000290000F002F904B004BC7F
:101090009046F0BD8642EBD90026002700F0ECF820
:1010A00032003B00121A8B41002BE9DD0023029332
:1010B0000193154B3200009314483B00FFF7F0FEFC
:1010C0000028DFDB00239846BC46114A114F7B6A9B
:1010D0009C4504D8B96AB142D4D29C45D2D111689A
:1010E000EFF3108072B60B68002BFCD0BFF35F8F5C
:1010F0001368BFF35F8F4146196080F3108820BFEB
:10110000E5E7002ABED0D1E7850B00109C0E002039
:10111000001A00200040054070B5060000F0ACF851
:10112000FA2204000D00920000233000002101F09B
:10113000EBF800196941002902DBFFF78BFF70BD56
:10114000012001494042F8E7FFFFFF7F70B5EFF350
:10115000058384B005000C00002B0ED0104A00203F
:10116000536AA34207D3926A0130AA4203D21C1BDE
:10117000601E8441E0B204B070BD0A4E0293019338
:10118000094B0200009330000B00FFF789FE002896
:10119000E4DD20BF01003000FFF722FFDEE7C0469C
:1011A000004005409C0E0020850B0010F8B5EFF3C1
:1011B0000582CE464746100080B51038EFF3108CFC
:1011C00072B6204C2368002BFCD0BFF35F8F012345
:1011D000190081401C4D1D4E716329601C4DA946AC
:1011E0002D782F00C7403B4015D0736A194E9846A2
:1011F00083009E59B04517D3174A8D439B584A46E2
:101200001570BFF35F8F002222608CF31088002BD3
:1012100006D0984704E0BFF35F8F23608CF31088FB
:101220000CBC90469946F8BD0C4B9200984642443F
:1012300013681360BFF35F8F002323608CF3108863
:10124000EEE7C046280100D03C7005400040054054
:10125000391A00200C1A002010140020D03F05403D
:1012600010B50100024A0348FFF7CEF810BDC04692
:10127000C84D0010341A0020044A516A00E01900D9
:10128000906A536A9942FAD17047C04600400540BF
:10129000064A536A9942FCD807D1044B02E05A6AC5
:1012A000914202D19A6A8242F9D3704700400540C8
:1012B00070B504000D00EFF3108672B61A4A136879
:1012C000002BFCD0BFF35F8F002D1BD02000FFF759
:1012D00065F9164988420AD02000FFF767F9012115
:1012E0002000FFF72BF90123A340114A1360114B93
:1012F000A400E550BFF35F8F00220B4B1A6086F30A
:10130000108870BD0B4BA200D5500122A2400A49A3
:1013100020000B7893430B700449FFF755FA002126
:101320002000FFF70BF9E5E7280100D0AD11001010
:101330003860054010140020391A0020F0B5D64658
:101340004F464646324CC0B5656A00E00D00A66ABD
:10135000616AA942FAD1AB4209D806D00124200023
:101360001CBC90469946A246F0BDB242F6D9EFF3B6
:10137000108972B6274C21680029FCD0BFF35F8F1B
:101380000126254986408C460978244D0F003743B5
:101390008846F9B28A46614654460C701C49041DC1
:1013A000A4004E636250840063510D6A00243542EC
:1013B0001AD04D6A00E025008F6A4C6AAC42FAD11F
:1013C000AB4219D801D1BA4216D8C2451DD0104B34
:1013D000134A1E625E631F2318401E3B8340136046
:1013E0006346424601241A70BFF35F8F0022094B07
:1013F0001A6089F31088B2E70024BFF35F8F0022E0
:10140000044B1A6089F31088A9E70124ECE7C04671
:1014100000400540280100D0391A00200C1A002095
:1014200080E200E010B5EFF3108472B60A490B6851
:10143000002BFCD0BFF35F8F01238340074A08488D
:10144000136202789A430270BFF35F8F00230B6030
:1014500084F3108810BDC046280100D0004005402C
:10146000391A002070B506000D00140000291ED0A6
:10147000002A1ED073688068984763006A001B19B1
:101480005219033B033A3168002808D0CB188A1858
:101490009D70117800290ED11470280008E08A1878
:1014A000CB1894701978002900D051701D7020005D
:1014B00070BD0800FCE7597028001470F8E7C046BA
:1014C000F0B5DE4657464E464546E0B583600023FC
:1014D00089B04260026806914373C9B20133059135
:1014E00001738373C1730492012900D8A4E00A0038
:1014F0004B1ED9B2931E0791072B00D8AEE00025F2
:10150000CB080393049B564C591C564B56489B469C
:10151000564B9A46564B9C46564B02935246634650
:101520005F465E4662401A40504B2740FB185A40C7
:101530000640534601966646434033404B4E0A7080
:10154000B046019E0135B146C84446467340160474
:10155000360ECE701602120E4A721A04120E0B7359
:10156000CA731A021B0E4B75029B360E5C40634613
:101570001C40404B120E9846029B4744584063461D
:1015800018404B4643445840039BEDB28E718A7419
:101590007C401831AB42C1D1079907230A009A4316
:1015A000531CDBB2914247D0049C5A00A446D21887
:1015B000591C6244059DC9B2033A51708D423BD912
:1015C0004A005218981C6244C0B2033A50708542D7
:1015D00032D942001218D91C6244C9B2033A517080
:1015E0008D4229D94A005218181D6244C0B2033AEC
:1015F0005070854220D942001218591D6244C9B268
:10160000033A51708D4217D94A005218981D62440E
:10161000C0B2033A507085420ED942001218D91D4B
:101620006244C9B2033A51708D4205D94A0052183A
:101630006244033A08335370FF23069A134059005B
:10164000C918049B9C460023614403394B7009B0C0
:101650003CBC90469946A246AB46F0BD0123A3E7A9
:10166000010203047F7F7F7F050607080101010156
:10167000808080800808080870B50400002907D021
:101680004B0000685B18033BC3185A78002A01D14D
:10169000080070BD5500AD18033D4019002546787F
:1016A00045705D702000FFF7DDFE31000500200071
:1016B000FFF7E2FF290002002000FFF7D3FE010040
:1016C000E6E7C046F0B54E464546DE465746E0B52D
:1016D0000E0074000168A41985B0033C01920A1938
:1016E00005001078002850D043001B18033BCB188E
:1016F0005F78BC46002F1AD1019C002C42D0EC7BB5
:10170000002C04D063001B19CB18033B5E70AB7B2D
:10171000002B00D1AE73EE7300282FD1002353703D
:1017200005B03CBC90469946A246AB46F0BD7A0057
:101730006244033A89184A78934600224A709046D8
:101740005A7001003A002800FFF78CFE5B46814684
:10175000002B07D05B0029685B44033BCB185A7809
:10176000002A16D15A4649462800FFF77BFE296811
:10177000019B0A19002BC2D10028CFD043001B18AF
:10178000033BCB1800219970C8E7019B002BB6D111
:10179000C4E750008018033809184878824640464C
:1017A0004870587059462800FFF75CFE5346834640
:1017B000002B07D05B0029685344033BCB185A78B1
:1017C000002A06D1594652462800FFF74BFE8346B1
:1017D000C8E7500080180338091840464F78487011
:1017E0005870514628000297FFF73CFE8246002FB2
:1017F00008D0BC467B0029686344033BCB185A7869
:10180000002A06D15146029A2800FFF72BFE824695
:10181000D8E7500080180338091840464F784870C0
:101820005870029928000397FFF71CFE8046002F8E
:1018300008D0BC467B0029686344033BCB185A7828
:10184000002A06D1039A41462800FFF70BFE0290BA
:10185000D8E7032050430338091800204F78487018
:10186000587003992800FFF7FDFD39000290280009
:10187000FFF702FF029902002800FFF7F3FD039033
:10188000E0E7C046F0B54E464546DE465746E0B571
:10189000467B040075000068AD19033D85B0421910
:1018A00001911178002952D04B005B18033BC318FB
:1018B0005F78BC46002F1CD1019D002D44D0E57BF4
:1018C000002D04D06B005B19C318033B5E70A37B33
:1018D000002B00D1A673E673002931D1002330001C
:1018E0005370617305B03CBC90469946A246AB4626
:1018F000F0BD7A006244033A801842789346002291
:10190000427090465A7020003A00FFF7ABFD5B46EC
:101910008146002B07D05B0021685B44033BCB185A
:101920005A78002A17D15A4649462000FFF79AFDF7
:10193000019B010020684219002BC0D10029CDD0A5
:101940004B005B18033BC31800209870C6E7019B4F
:10195000002BB4D1C2E7500080180338091848782A
:10196000824640464870587059462000FFF77AFD7D
:1019700053468346002B07D05B0021685344033B4A
:10198000CB185A78002A06D1594652462000FFF754
:1019900069FD8346C7E750008018033809184046A0
:1019A0004F7848705870514620000297FFF75AFD53
:1019B0008246002F08D0BC467B0021686344033B6D
:1019C000CB185A78002A06D15146029A2000FFF718
:1019D00049FD8246D8E75000801803380918404670
:1019E0004F7848705870029920000397FFF73AFD2E
:1019F0008046002F08D0BC467B0021686344033B2F
:101A0000CB185A78002A06D1039A41462000FFF7E6
:101A100029FD0290D8E7032050430338091800201D
:101A20004F784870587003992000FFF71BFD39006C
:101A300002902000FFF720FE029902002000FFF72D
:101A400011FD0390E0E7C04670B5040000292CD0DA
:101A5000437B8B422ED00568480040180338281875
:101A60008278002A21D053009B18033BEB181A7888
:101A70008A4202D11BE0002A08D053009B18033B86
:101A8000EB185A788A42F6D142785A700023012224
:101A9000837043702000FFF715FE617B0200200079
:101AA000FFF7E0FC6073012000E0002070BD427889
:101AB0001A70EBE701221900FFF704FE60730120A2
:101AC000F4E7C046F8B5040006200D0000F0CCF99C
:101AD000002845D02B4B2C49E3185A425341802211
:101AE000D20394465B421340284A63441360284A59
:101AF000136018008A689043FBD1224B8021E318C1
:101B00005A425341234A5B0049000620995200F093
:101B1000ABF92900C00000F05DFBC30921D14027CB
:101B20000122260080256262A36200232C36AD01CB
:101B300035432B60062000F097F93900800000F053
:101B400049FB6023E26A53406E221A4080235B0106
:101B500033431A60104B236310232B600D3BA364A7
:101B6000F8BD0E4A934203D900230D4F0D4AD8E722
:101B70007F221040013040089F011A003F180300E7
:101B8000CFE7C0460080FCBF00C0004000E000403E
:101B900000F000403C1A002001030000FEFF00009E
:101BA000C0FF3F00FFFF000030B50C2083B000F005
:101BB000B5F9FEF721FC00280ED0944B944A1A6028
:101BC0005A609A60DA601A615A619A61DA611A623F
:101BD000904A5A6203B030BD8F4CA06700F0F2F912
:101BE00001228E4B1A60636C012BFCD103228C4BBB
:101BF0001A60894A936B012BFCD101330093894A07
:101C000004330121884800F035F90523874A009301
:101C10000121874800F02EF9864B5A68FF2A02D826
:101C2000802252005A608022784C7D4B216912013B
:101C3000804D1A60002905D0606900F0CBFA0130B0
:101C40000138FDD1E0217B4B02201A68114080222F
:101C500052012A4311601968484003210140116074
:101C600004219A681142FCD08022802192012A43EB
:101C700009011160802252005A606F4B23616F4B43
:101C80005968FF2900D85A6003226C48634B012130
:101C90001A60020093681942FCD0E02513681D40C9
:101CA00080235B0103431D6012684A4003211140F9
:101CB00019600221614A93681942FCD08023802177
:101CC0009B0103430901196080215D4B490051606C
:101CD00063615C4B5A68FF2A00D8596080225A4BD6
:101CE000E1691201574D1A60002905D0606900F0C2
:101CF00071FA01300138FDD1E02252490B681A40D7
:101D000080235B012B431A60802380229B012B439D
:101D100012011A6080223E4B52004A60E3614B4B35
:101D20005968FF2900D85A608022494B216A120164
:101D3000464D1A60002905D0606900F04BFA013069
:101D40000138FDD1E02241490B681A4080235B0134
:101D50002B431A60802380229B012B4312011A60BF
:101D600080235B004B602A4B3A4A23623A4B596806
:101D7000914201D801325A608022384B616A1201C7
:101D8000354D1A60002905D0606900F023FA013052
:101D90000138FDD1E02230490B681A4080235B01F5
:101DA0002B431A60802380229B012B4312011A606F
:101DB0008023DB024B60174B6362294B5A68FF2A72
:101DC00002D8802252005A608022264BA16912015B
:101DD000234D1A60002905D0606900F0FBF901303D
:101DE0000138FDD1E0221E490B681A4080235B01B7
:101DF0002B431A60802380229B012B4312011A601F
:101E000080235B004B600E4BA361E3E6341500209A
:101E1000006CDC021BB70000008000403CB00040BA
:101E200030B00040002F685900800240008C864787
:101E300000C0024030800040001BB7003C800040E2
:101E4000405973075480004054B000406080004007
:101E500060B00040FFFF03006C8000406CB00040A9
:101E60004880004048B00040014B8000C058704797
:101E700034150020F8B504000C201E0017000D00DA
:101E800000F0A8F94201121A9101891AC900091833
:101E90008901380000F09EF9069B226836041B0376
:101EA0003343002A21DB194A194EA21851424A41F4
:101EB000802149018C4652420A40164962440A6018
:101EC00015490A601700B1688F43FBD1C021221D5C
:101ED0008901114321222560A0600A602268002A3E
:101EE000FCDAE36008230B60F8BD3F2221680A405A
:101EF000AA42D8D1A2681205120D8242D3D1EE2196
:101F0000E268C9020A409A42CDD1EDE70040FDBF28
:101F100000C0004000E0004000F000408023024A82
:101F20009B000343D36270470080054010B58024B6
:101F30001B4BE4051C6000282BD00123194C1843CF
:101F4000194BDC61194C44401C6259629862802133
:101F5000134BC9051960164816490860E021C904E9
:101F60001960002A04D18022134B12061A6010BD9A
:101F700053019B1A9B009A18104B12019A420BD8DE
:101F80000F4B1A60084B5A6080220B4BD2051A6027
:101F9000EDE7054BD861DAE7094A13601A00F1E76B
:101FA00000B00540D3C007B0008005402D3FF84F7A
:101FB000FCFF01000820014000A00540FFFFFF00DA
:101FC000D4190020AA23064A1B0113602F230549B8
:101FD000D360054B19605368002BFCDA7047C0468C
:101FE0000040024000B0FA00006002402D4B2E4A33
:101FF00070B51A602D4A2E4B2E491A6010008B685E
:102000009843FBD12C4C2D4B9C4209D2013B1D1B0C
:10201000AD080135AD002D1908CC9847AC42FBD175
:10202000FFF7C2FD264A224B1A60224A9368DB0161
:102030008033FBD14022234B234D24489A675A67B3
:102040001A67DA66A84205D30EE0FEF72BFD2000E2
:10205000AC4209D2040003680834002BF5D1FEF726
:1020600013FD2000AC42F5D3194C1A4DA168C022D3
:10207000280000F0BBF9A560FEF736FAFEF7D6FCA3
:10208000FEF7D4FE144C154B9C4209D2013B1D1B9C
:10209000AD080135AD002D1908CC9847A542FBD1FC
:1020A00070BDC04600E00040BFCDFBFEFE7F3C009F
:1020B00000F0004000C00040500F0020600F0020E2
:1020C000FFFFFF0100F00140500F0020480F0020EB
:1020D00000ED00E000000020600F0020680F0020ED
:1020E00000BEFDE710B5FFF7FBFFC0460FB400B51B
:1020F000084883B000F0ACFA049B002B07D005A978
:102100001800019100F018F8034800F0A1FA01202E
:10211000FFF7E6FFF84D0010084E001010B501481B
:10212000FFF7E4FFEC4D001010B5002800D110BD02
:1021300000F042FAFBE7C04610B5094A84B01468C3
:10214000002C09D0012200910300524203A9054846
:10215000A047012004B010BD00F07AFA0020F9E792
:10216000D01900202921001001480421014B1847F3
:10217000D00E002099210010142310B501001888FA
:1021800004331B88984710BD162310B5010018882A
:1021900002331B88984710BDF0B5C64600B500292C
:1021A00016D01423040001259846182789004618E4
:1021B0004346216818883B88984701C4431E9841CC
:1021C00040420540A642F3D1280004BC9046F0BD31
:1021D0000125F9E7114A936F9B0813D210665166E7
:1021E000002905D0FFE7FFE7FFE7516F106F704749
:1021F00004B5002801D00020C04302F061FD002199
:1022000004BDC046F0B5146E556E576F166FFFF7DC
:10221000E5FF1466556657671667F0BD000000D0ED
:10222000132370B51D78012D15D010DD2648FFF75A
:10223000ABFF264C01008022200000F0D7F8022DD1
:1022400006D02348FFF798FF224B186070BD1F4C43
:10225000214AA264F5E71D4C1F4AA3085B421D40BA
:102260002FD02B0022602020A9006118451B0A6096
:102270004A608A60CA600A614A618A61CA610A6208
:102280004A628A62CA620A634A638A63CA630A64E8
:102290004A648A64CA640A654A658A65CA650A66C8
:1022A0004A668A66CA660A674A676D08102D03D1B6
:1022B0008A67CA67A264C4E71E339B00E250A26427
:1022C000BFE70023CFE7C04653440000401A002078
:1022D0004C330000FC190020DD22001007B56046D9
:1022E00001880A0A0230DF2AFAD1C9B2820804D36F
:1022F000028840880004104300E00068014A505002
:10230000039007BD401A002051434343C9188C462F
:10231000110C83B24B4310B4040C614392B280B2EF
:10232000504362431C041B0C001910BC5941130498
:10233000120CC0185141614470470000132310B5BE
:102340001C781348FFF720FF012C0BD004DD01009F
:102350008022104800F04AF80F48FFF70DFF0F4B9E
:10236000186010BD0B4C01005422200000F03EF814
:102370000B4B6365A365E36523666366A366E3664B
:1023800023676367A367E3672362E361E4E7C0460B
:1023900053460000401B00204C330000FC19002075
:1023A000A523001007B5604601880A0A0230DF2A1B
:1023B000FAD1C9B2820804D30288408800041043CD
:1023C00000E00068014A5050039007BD401B002008
:1023D00001480421014B1847E00E0020992100100C
:1023E000014B1B6818470000E00E0020014B5B68A2
:1023F00018470000E00E0020030010B508001B681D
:102400001100984710BDC046F8B54746CE4680B586
:10241000437D80460C001500002B43D0002A34DD9C
:102420000A78037D00200A2A33D0012D1ED0204BCC
:102430000121671E994602E03100B54216D0635C67
:102440007A5C4E1C0A2BF7D10D2AF5D043461B6847
:10245000884204DA091A2018984743461B6802216B
:102460004846984730003100B542E8D1854204DD46
:102470004346291A1B68201898476419013C2378A1
:102480000D3B5A425341424613750CBC9046994647
:10249000F8BD002BC9D14346054802211B68984767
:1024A0000120C2E70368110020009847EDE7C0460D
:1024B000784E0010F0B5DE4657464E464546E0B52C
:1024C00085B017001C0006000D00FEF7D5FE0023A6
:1024D000324A12184B41002B5BDB31490800884619
:1024E00002F00EFC01906B1C03D1300002F090FB57
:1024F0000500002C28D12B4B9A462B4B1C68002C36
:1025000015D0002F23D1294F02E02469002C0ED0D2
:102510002368002BF9D03B68002B01D0A342F4D1F3
:1025200020002A003100D0472469002CF0D1019B03
:10253000002B2AD1681E8541E8B205B03CBC90460C
:102540009946A246AB46F0BD194B9A46D5E7174BC4
:102550009B4602ABDF1D0A23994602E02469002C4A
:10256000E5D02368002BF9D05B461B68002B01D017
:10257000A342F3D12A0031002000D0474B4601226C
:10258000390020003B70D047E8E7404602F080FB6E
:10259000D0E70122074B52429FE7C04640420F005E
:1025A000480F002009240010C4150020CC1500207D
:1025B000F9230010FFFFFF7FF0B5CE46474680B5F8
:1025C00083B06B46DE1D05003070FEF755FE00231C
:1025D0001A4A12184B41002B2CDB194F380002F01D
:1025E0008FFB184B80461C68002C16D0164B994662
:1025F00002E02469002C10D02368002BF9D04B4650
:102600001B68002B01D0A342F3D12000012231002E
:10261000FFF7FAFE2469002CEED14346002B05D1CA
:10262000280003B00CBC90469946F0BD380002F07B
:102630002FFBF5E70122054B5242CEE740420F0047
:10264000480F0020C4150020CC150020FFFFFF7F9D
:1026500070B5040002F0DCFA00230100050001223D
:102660002000FFF727FF084B1C68002C06D063688A
:10267000002B05D098472469002CF8D1280070BDA4
:102680002469002CF3D1F9E7C41500200A4A136825
:10269000002B05D10CE01A001B691032002B07D06B
:1026A0009842F8D1002902D1036913600161704793
:1026B0000029FCD01060FAE7C415002010B500F026
:1026C000BFF800F0C1FA012010BDC046F0B50029E6
:1026D00015DD0E4B0D271A680D4B4118D3185C42BF
:1026E00063410C4C5B001E5F20240578AE4207D08E
:1026F00093691C42FCD1013015608842F5D1F0BDD0
:1027000093691C42FCD11760F2E7C0461C1A0020F6
:102710000080FCBF3C1A002030B5002923DD1B4B94
:102720001A689369DB061ED4002510240138013590
:1027300093691C42FCD113684355A94202D09369A6
:102740001C42F4D0124B1B68002B0AD05023936319
:10275000516B183B34320B401100802252010A4366
:102760001360280030BD0A4B1B68002B0BD0502291
:102770003821064B1B689A635A6B34331140802210
:1027800052011343196003256D42EAE71C1A002029
:1027900020150020064B10B51B68002B06D0002129
:1027A000044A12689163044A1068984710BDC046F5
:1027B000201500201C1A002028150020F0B51B4F02
:1027C0001B4A3B680500981842425041C646194EC4
:1027D000143000B5884604003268002D08D0002A65
:1027E00011D04246144B35601A6004BC9046F0BDCF
:1027F000002AF6D09D630021FDF7A0FE0F492000BE
:10280000FDF7E2FFEDE70D49FDF7D0FE01212000C5
:10281000FDF794FE502238213B689A635A6B34339B
:1028200011408022520113431960DAE71C1A00207C
:102830000080FCBF201500202815002095270010DF
:1028400010B50C4B0C4C1B780C4B02211B780C4B1D
:1028500000202360FDF79AFD02210120FDF796FD7F
:10286000E12120684902FFF72DF901210548FFF712
:102870000DFF10BDC85000101C1A0020CC500010D5
:1028800000400340F00E00207047C0460022014B7C
:102890001A707047361A00204B790020FF2B0BD19D
:1028A0008B79002B08D1CB79012B05D1082A03D9CC
:1028B0008A78024B09301A707047C046361A0020D9
:1028C0000120704770B5012909D115495379107954
:1028D00009781B0203430020994202D070BD0120F9
:1028E000FCE75378012B08D0022BF7D1002064229B
:1028F0000021FFF71BFB0120F0E7D4789178240238
:102900000C430500E20502D5620A93401D0005480C
:10291000FFF732FC7F210300214028009847C04682
:10292000361A00205542000001230370004870470A
:10293000BC4E00104A780B7812021A438B7810B5FF
:102940001B041A43CB781B0613439622D2009342F2
:1029500000D010BD0348FFF70FFC00210300080062
:102960009847C04655420000024B1860024B196060
:102970007047C046241500202C150020114B70B55F
:102980001A68002A1AD0EFF3108172B61068002876
:10299000FCD0BFF35F8F00220B48596002701B68A8
:1029A000BFF35F8F1A6081F3108800240025074B66
:1029B0001878FDF7D5FD2900200070BDFA24002508
:1029C000A400F4E7DC190020381A0020371A002090
:1029D00010B5024B1878FDF7C3FD10BD371A002063
:1029E00070B5050000200E0001F03EFB002835D038
:1029F000002001F051FB002830D0FEF73DFC002301
:102A0000184A12184B41002B24DB174C200002F00F
:102A100077F9002822D0002001F026FB00280BD1F6
:102A2000012000214042032500F0DEFC6D42200021
:102A300002F02EF9280070BD002001F02DFB0028C7
:102A4000EED029003200002001F032FB051EEED14D
:102A5000033DECE70122054B5242D6E703256D42C8
:102A6000E8E7C04640420F00041A0020FFFFFF7F46
:102A7000F0B5D6464F464646C0B507000E00FEF7F5
:102A8000FBFB0023394A12184B41002B5EDB38490F
:102A90000800884602F034F9002804D11CBC904696
:102AA0009946A246F0BD002001F0DEFA002851D080
:102AB0000024002E35DD2F4B99469A4615E000285C
:102AC00051D101200021404200F08EFC002001F095
:102AD00027FB002001F0C8FA002822D0002001F0D6
:102AE00075FB002821D0A6421BDD0020351B01F01C
:102AF0006DFB8542E3DC2A003919002001F04CFB14
:102B0000050001200021404200F06EFC002001F091
:102B100007FBFEF7B1FB4B46641918605960A642EB
:102B2000E3DC404602F0B4F8B8E7FEF7A5FB00236B
:102B30000D005146104A84460868496812184B41F6
:102B40009D42EED8CFD19445CDD9EAE701220B4B77
:102B500052429CE700200021064B18605960404615
:102B600002F096F89AE70500C5E7C04640420F001C
:102B7000041A00206810002020A10700FFFFFF7F3B
:102B800010B5244C84B00021200002F0A1F80028E8
:102B90001CD1214B1A68002A16D0EFF3108172B6AF
:102BA00010680028FCD0BFF35F8F01241B485960D8
:102BB00002781B68D2B20470BFF35F8F00201860E8
:102BC00081F31088002A0AD004B010BD0120002132
:102BD000404200F009FC200002F05AF8F4E7FEF74A
:102BE0005BF90400FEF748FBFA220023920012185A
:102BF0004B41002B09DB0121029100210191084981
:102C000020000091FEF74CF9DEE70122054B52420D
:102C1000F1E7C046041A0020DC190020381A002011
:102C20007D290010FFFFFF7F054B10B518680028B5
:102C300004D0044B0022196801F07AF810BDC04698
:102C4000241500202C150020D02310B51B0684B0BD
:102C50001C68FEF721F9FEF7FBF9A04202D0002024
:102C600004B010BD264B1B7801F0C0FC2548FDF7D1
:102C70000BFF0120FDF7ECFEFF23234C23492070BE
:102C80001840FDF793FC20780121FDF757FC052043
:102C9000FDF76EFC002822D1FEF7FEF80400FEF7D7
:102CA000EBFAFA220023920012184B41002B22DB90
:102CB0000121029100210191154920000091FEF7A8
:102CC000EFF80822040000211248FFF789FB002CCE
:102CD000C5DB11480121FFF7D9FC0120C0E7002224
:102CE0000E490520FDF78CFCFDF70CFC010009489E
:102CF000FDF7F6FEEDE70122094B5242D8E7C04648
:102D0000D0500010041A0020371A0020812B001028
:102D10007D290010DC190020080F0020D1290010A7
:102D2000FFFFFF7F00487047744F00100048704756
:102D3000204F001070B5040016480378002B20D0F7
:102D4000002C18D0052C23D8134B1448A400E558A8
:102D5000811C002304E001330A800231132B14D0BC
:102D6000EA5CDCB2002AF6D1C023013464009B0087
:102D70001C43048070BDC1240848094BA400438053
:102D8000F7E7112100F016F8DAE7CA24A400F0E70B
:102D90000020EFE7201A0020884F00109C1500202B
:102DA0000904000010B5024800F0EAF810BDC04662
:102DB000F4190020013930B5002900D1B8E06F4B7B
:102DC0001A781211D5B22C003034092A00DDB2E095
:102DD0000470012900D1CEE00F221C78224014009B
:102DE0003034092A00D9A8E04470022900D1C2E099
:102DF0005A781211D5B22C003034092A00DD9FE038
:102E00008470032900D1B6E00F225C7822401400C0
:102E10003034092A00D995E0C470042900D1AAE011
:102E20009A781211D5B22C003034092A00DD8CE0DA
:102E30000471052900D19EE00F229C7822401400E5
:102E40003034092A00D982E04471062900D192E089
:102E5000DA781211D5B22C003034092A00DD79E07D
:102E60008471072900D186E00F22DC78224014000B
:102E70003034092A00D96FE0C471082900D17AE002
:102E80001A791211D5B22C003034092A67DC047289
:102E9000092900D16FE00F221C7922401400303440
:102EA000092A5ED844720A2965D05A791211D5B21E
:102EB0002C003034092A57DC84720B295BD00F2296
:102EC0005C79224014003034092A4FD8C4720C298E
:102ED00051D09A791211D5B22C003034092A00DD74
:102EE000073404730D2946D00F229C792240140028
:102EF0003034092A01D93732140044730E293AD0EC
:102F0000DA791211D5B22C003034092A00DD0734E9
:102F100084730F292FD0DA790F2313401A00373228
:102F2000092B01D830331A00C273102923D0103076
:102F30000023037030BD07344AE73732140053E7EB
:102F400007345DE73732140066E7073470E737323D
:102F5000140079E7073483E7373214008CE707342D
:102F600095E7373214009DE70734A5E737321400A0
:102F7000C4720C29ADD14018DAE7C046F41900201C
:102F800010B588B004000D2200216846FFF728FA2A
:102F90000D22002104A8FFF723FA4B236A4604A957
:102FA000137068460D2201F06BFE1521082269445A
:102FB0002000FFF71BFA08B010BDC04610B5012174
:102FC0000520FDF7BBFA10BD10B500220021024814
:102FD00000F054F910BDC046F01500208022024BCD
:102FE0005202DA647047C04600201150F0B5C64660
:102FF00000B5804600F01CF90C23194DFF22AB6789
:1030000018490520FDF7FCFA174C4022002120004A
:10301000FFF7E6F94027002301262121134A6670B5
:103020002783A260136063545F3161844539635420
:103030000F4A10496360E2602787A1620B606362F8
:10304000E26201F035FE80239B052E64EB64902341
:10305000094A4046EA50FFF7C1FF04BC9046F0BD64
:10306000000011500D050020D015002084001050E4
:10307000000110508000105010D001000B785B064A
:1030800002D14B78052B00D070478A78014B1A602B
:10309000FAE7C04600001150F0B5C64600B54B79BE
:1030A0000A791B0288781343CA787F21920701406E
:1030B000920FC4094E009446D7B2334D32195201D3
:1030C000AA1890700120604050700020D070804697
:1030D00060465B055B0D1383D076CA00012C33D0AC
:1030E0002A488446880162448446AC446046826033
:1030F00040461060002933D0254AC90090466246F8
:10310000414451603F223F339343022F00D15B0083
:103110002048321901685201AA18D1601E4ACB1802
:10312000036051405340802288465201934228D880
:103130004346BF061F438023361976011B06AD198F
:103140001F436B681F6011E0144884468801624485
:103150008446AC446046826240461060002909D132
:10316000002364012D196B600D4BEB60012004BC42
:103170009046F0BD084AC9009046624641445162FB
:10318000C0E7FEF7CBFFD3E7D01500208400105036
:1031900004001050D819002000001050800010507A
:1031A0000001105010B501F083FD10BD7F2020B547
:1031B000150008404000C909401804494001401862
:1031C0001A00290000F05AF8012020BDD015002077
:1031D0007F2310B50B40C909002B03D102220748F9
:1031E000521A8266802258004018054B4001C018D0
:1031F0001201002101F09CFD10BDC04600201150BD
:10320000D01500207F2310B50B4000D110BDC90997
:1032100058004018044B4001181800230022C370C6
:10322000024901F085FDF1E7D0150020FFF7FFFF0F
:1032300080220D4B520410B51A600C4B0C491A60D9
:1032400010008B689843FBD10A4C9C22002120007F
:10325000FFF7C6F88022002152010748FFF7C0F8A7
:103260000923636710BDC04600E0004000F0004045
:1032700000C00040000011500000105070B5837E67
:1032800004000D001600002B19D100232100E38259
:103290000133A682A3762561A01C1B3101F000FD3D
:1032A000002804D080219023084A8902D1502000B0
:1032B00001F016FD002805D00123237770BD01F031
:1032C0002FFDE2E7200001F023FDF7E70020115079
:1032D000024B5878431E9841C0B27047B413002087
:1032E000024B18784007C00F7047C046B413002047
:1032F000034B1878FF38431E9841C0B27047C04650
:10330000440F0020F8B54746CE4680B52C4D070047
:103310002B780120FF2B03D00CBC90469946F8BDBA
:10332000532200212748FFF75BF8274C2000FDF7C8
:10333000ABFB264B1C60264C20001430FDF7C0FB75
:10334000200001F021FC234B234E1C60234B9846A8
:10335000002B04D03000FFF7E7FA214B18604246FB
:1033600033780024002A23D01E4A90461C4A9146F6
:10337000A34212D80FD14346984701343378E4B2C0
:10338000A342F5D238002F70FFF730FE3800FFF768
:1033900015FE0120C0E70020BEE74A461268630020
:1033A00094461B19DB006344002BF4D01B68E3E751
:1033B00000F018FF33780020002BADD1E2E7C046C3
:1033C000440F0020B41300206C13002008140020C8
:1033D000280F00200C140020311A00202929001089
:1033E0008C100020E5410010F0B5DE4657464E46F1
:1033F0004546E0B58DB001F0FFF8002800D15BE153
:10340000CC4BCD4E9A46CD4D09AC37687A69EFF377
:10341000108172B61368002BFCD0BFF35F8FB961C7
:103420003800210001F0F0F97A69BB69BFF35F8FC2
:103430000021116083F31088002800D13CE16378FB
:10344000082BE2D852469B00D3589F466368002B56
:10345000DBD0A0689847D8E77F222179B74F0A4090
:1034600050003F18B846CB099844404601273030F9
:10347000C378BB43C370C3780337BB43C370002A10
:1034800000D151E14346AE4ADB7C002A06D0AD4A6A
:103490001278934200D280E19B1ADBB2002B00D05D
:1034A0000AE1A94F62792078A368B847ADE7012205
:1034B0002B78012113432B7033230420EA5C8A43C9
:1034C000EA54EA5C8243EA540133EA5C8A43EA54F0
:1034D000EA5C8243EA54237800209B4600F032FDE8
:1034E000602223791A40602A00D10BE1402A00D1E2
:1034F0003AE1DB06DB0ED9B2012900D158E15BB21B
:10350000002B00D13EE1022900D0FBE07023217A9C
:103510000B4200D0F6E0C80984460F330B405B0035
:10352000E818874F6044C07C002F06D0854F3F7855
:10353000B84200D291E1C01BC0B2002800D087E1A0
:10354000002A00D07AE1814F62799046012A05D0A5
:10355000002A00D13FE2032A00D0D3E0E288002A0B
:103560000FD17B4AEB18107842466344012A00D100
:103570003AE23022904698444346DB789B0700D4D9
:1035800048E2002F00D140E7F86800F0DBFCFB6860
:103590000AAA012158469847002000F0D3FC3423A2
:1035A000EB5CDB0700D530E70AA9584600F04EFC7B
:1035B0002BE7624F3B78DB0700D426E7654B002BF7
:1035C00000D122E700E000BF1FE75C4F3B78DB073C
:1035D00000D41AE7604B002B00D116E738780007BB
:1035E000C00F00E000BF10E72378554A9846554BBE
:1035F000002799461B78002A00D18CE0574A934651
:103600009F4260D319D1564B404698474B460137ED
:103610001B78FFB2BB42F3D2484F5322002138003F
:10362000FEF7DEFE1022FF21F81CFEF7D9FE38005F
:1036300020221330FF21FEF7D3FE00F079FC494B26
:10364000002B00D1E1E600E000BFDEE623783C4A33
:1036500098463C4B002799461B78002A1FD03F4ACA
:1036600093469F423AD321D13D4B404698474B4623
:1036700001371B78FFB2BB42F3D2304F53220021F7
:103680003800FEF7ADFEF81C1022FF21FEF7A8FE61
:1036900038002022FF211330FEF7A2FE07E040464B
:1036A00000F0DEFD4B461B78002BE6D0234F00F0E8
:1036B0003FFC2379BB70A8E60DB03CBC9046994610
:1036C000A246AB46F0BD5A4612687B009446DB1911
:1036D000DB006344002BB0D05B6895E75A46126864
:1036E0007B009446DB19DB006344002BDED05B6873
:1036F000BBE71A4A5F00FB181768DB00FF18002FB2
:1037000000D0B6E020780021FFF762FD207880210C
:10371000FFF75EFD79E6404600F0A2FD4B461B78C0
:10372000002B00D089E777E762792078A36800F062
:103730001DFC6AE6005000100C140020B413002099
:1037400029290010311A0020514400108C5000101B
:10375000440F002000000000000000008C1000203A
:103760006142001000000000B1480028CAD000F0FB
:10377000E9FB0AAA0121584600E000BF002800D05A
:1037800043E6BFE7202A46D0002ABBD16379092B44
:10379000B8D8A84A9B00D3589F465A00D318A64AC7
:1037A000DB001268D318002B00D185E71F6979E68A
:1037B000237A0F2BA6D8A14AEB18DB78002A05D074
:1037C0009F4A1278934256D39B1ADBB2002B99D1B1
:1037D0009C489D4F00F0B6FBFB680AAA01215846A1
:1037E0009847002800D010E6602723791F4089D130
:1037F00063790A3B012B85D800F0A4FB63790A2B7F
:1038000000D0D1E608AB9A1C0AA9012358461770CC
:1038100000F034FBF9E5237A0F2B00D972E7874AD1
:10382000EB18DB78002A06D0854A1278934200D242
:103830005FE79B1ADBB2002B00D063E78148824F21
:1038400000F080FBFB680AAA01215846984795E7DB
:103850000027002A00D177E654E747003818764F52
:10386000C0003F683F18002A00D16DE6002F00D14C
:1038700048E7F868E4E7704A5F00FB181768DB0068
:10388000FF18002F00D13DE7F868A3E76B7808AA7E
:10389000023213700AA90123584600F0EFFAB4E58A
:1038A000E088030AC0B20F2B00D92BE767499A00C2
:1038B0008A5897460AA800F04BFBA1795846FFF7B3
:1038C00083FB02222B7813432B709EE5E388012BA8
:1038D00000D017E708222B780AA9134358462B700B
:1038E00000F0B4FA91E5E388012B00D00AE7082242
:1038F0002B780AA9934358462B7000F0A7FA84E569
:103900000220297808AB9A1C8B068908DB0F01403E
:103910000B4313800AA90223584600F0AFFA74E55E
:10392000A37902931A006B789A4207D06B78002B28
:1039300000D0F6E0029B002B00D08FE0029B0AA98A
:1039400058466B7000F082FA5FE5414B002B00D1C6
:10395000D8E600E000BF021E00D1D3E6C37881782C
:103960001B020B4358460AA900F088FA06E7394BB8
:10397000002B00D1C6E600E000BF021E00D1C1E668
:1039800013780AA9584600F079FAF7E62189FFF77B
:10399000D1F9021EF4D1B5E6022B00D1FFE02E4B87
:1039A000002B00D1AEE600E000BF002800D1A9E660
:1039B000C37882781B0213430AA90200584600F01C
:1039C0005DFADBE6FFF7AEF9122302000AA95846BA
:1039D00000F054FAD2E6EB1863443033DB7808AADF
:1039E0009B07DB0F023294E72F32914699444B46F6
:1039F000DB789B0700D4C4E5FFF704FC4B460222AA
:103A0000DB7893434A46D370D378424693434A4681
:103A1000D370B6E5FFF7DCFB43460222DB781343A5
:103A20004246D370D378012213434246D370A8E5AF
:103A300000000000245000108C10002029290010E4
:103A4000311A0020754300108C5000104C500010AB
:103A5000000000000000000000000000581EC0B27E
:103A6000FFF764F9002800D14CE643780693022B57
:103A700000D047E60122C1794B1113401B01994642
:103A80002B7889119846102347469F433B004F46A9
:103A90003B43202711404901BB430B432B700923B3
:103AA0009846C37881781B020B438044C318049363
:103AB0000792D9464746984500D3B7E0079A7B78E6
:103AC00001920B2B03D1FB7801933B78FF187B7895
:103AD000042B00D016E60021049B5E4ADB1B9BB240
:103AE00003935D4B884605931B788A4266D0B8469F
:103AF0000F009F4256D300D004E6584A584B9346D5
:103B0000039A414648469847082803D9039B8342B5
:103B100000D392E0059B01371B78FFB2BB42E8D28D
:103B2000F0E55846FFF73EFBAB784A4A01934A4B13
:103B3000002799461B78002A0ED04A4A90469F4299
:103B400023D31FD1484B584698474B4601371B7823
:103B5000FFB2BB42F3D206E0584600F081FB4B4671
:103B60001B78002B0ED1532200212800FEF738FCD1
:103B70001022FF21E81CFEF733FC2022FF213B48E6
:103B8000FEF72EFC019BAB70D4E642461823126868
:103B90007B4394466344002BF4D05B68D3E7FFF784
:103BA000C5F802E72F4B1A68182393467B439B44C2
:103BB0005B46002B00D1A5E59B68A1E7039B39007C
:103BC0001A0048469B4600F061FB8446082800D84E
:103BD00098E55A46824200D294E5204B9B46019BD1
:103BE000012B2FD0002240460AE0BB78D318DBB26D
:103BF000EB18D978FF2900D084E50132D870D2B211
:103C0000019B9A42F1D1E3468046030039006246A7
:103C1000164800F071FD059B5F441B78434500D2B8
:103C200070E5049BBB4200D948E7CB46104B002B04
:103C300000D183E600E000BF80E63B0084464746B3
:103C40009846CCE75A46064B92689A42CAD1069BE0
:103C50000193C7E729290010311A00208C50001069
:103C60008D4200108C10002061420010C71300200C
:103C700000000000F8B557464E46DE4645460C00AB
:103C8000E0B516001F00002A4BD04B78052B08D159
:103C9000CB789B079B0FBB4203D170228B781A42D3
:103CA00006D000203CBC90469946A246AB46F8BDE3
:103CB0001D4B00259B461B7899461C4B9A4670234A
:103CC000984602E05B461B78994653462000997857
:103CD00000F0D8FC0028E4D021004846FFF7DCF9CA
:103CE0000028DED0A378DA09012A13D00A9A013518
:103CF00013702378E418B54213DA6378052BD0D11A
:103D0000E3789B079B0FBB42CBD14246A3781A4274
:103D1000C7D1D7E70B9A013513702378E418B54261
:103D2000EBDB0120BEE7C046440F0020B4130020A7
:103D3000002210B584B001AB019208325A700E4ACD
:103D40009960146858606169EFF3108272B6086870
:103D50000028FCD0BFF35F8FA2611900200000F0A3
:103D60001DFE6269A369BFF35F8F0021116083F3B9
:103D7000108804B010BDC0460C140020702270B52D
:103D80008B780C001A4201D0002070BD064B200039
:103D90001D78064B997800F075FC0028F4D02100BE
:103DA0002800FFF779F9F0E7440F0020B413002052
:103DB0007F20074B10B51A680840CB093333400009
:103DC000C018044B1100181800F01AFC10BDC046B2
:103DD00008140020B41300207F20074B10B51A6888
:103DE0000840CB0933334000C018044B11001818A9
:103DF00000F02CFC10BDC04608140020B4130020B5
:103E000070B57F240C4060000E4CCD092418641955
:103E10003034E5780020ED0700D570BD0126E57847
:103E2000094835430078E570FFF7C0F90028F4D160
:103E30000122E3789343E370E37803329343E37022
:103E4000EBE7C046B4130020440F002070B50A4CC5
:103E50000600082220000D00FEF7C8FA002169566E
:103E60000023C943C90F3000E360C9010022A360E9
:103E7000FFF7C6FF70BDC04658130020F0B5C64618
:103E80009046294C082200B5060020000D001F00B6
:103E9000FEF7ACFA4346A3600023E381EB79AA79ED
:103EA0001B0213431A1CBB4200D93A1C97B2A281D1
:103EB000002B12D0002F1DD04346002B31D03B1CCD
:103EC000402F1DD89FB223787F2B1ED80021174A80
:103ED0003B003000FFF794FF09E000216956002302
:103EE000C943C90FC90100223000FFF789FF04BC94
:103EF0009046F0BD23787F2B10D980210022E7E780
:103F000040239FB223787F2BE0D9084C3A004146EA
:103F10002000FEF76BFA80212200D9E70021002261
:103F2000D6E70020E3E7C0465813002074130020B2
:103F300010B5142200210248FEF752FA10BDC04607
:103F400058130020014B18617047C04658130020D9
:103F500010B5054C010008222000FEF747FA0023A7
:103F6000A360E36010BDC04658130020F8B53B4C79
:103F70001D0023780600DA09C9098A4213D00020FF
:103F8000002D00D0F8BD364B002B03D021003000AF
:103F9000FFF774F82369002B43D02200032130007F
:103FA00098470120EEE7A0687F2B06D8002836D07E
:103FB0002A002C49FEF71AFAA068E289E388521910
:103FC00092B24019E281A060934214D03F2D12D9E1
:103FD000A589A91A0F1C89B240292ED82378BFB20F
:103FE0007F2B2CD80021AA4235D01E4A3B0030003E
:103FF000FFF706FFC6E72369002B05D02200022148
:104000003000984700280ED0002161560023C94394
:10401000C90FC90100223000FFF7F2FEB2E700200D
:10402000B0E70120AEE700213000FFF7D1F8300003
:104030008021FFF7CDF80120A4E74027CEE78021BB
:10404000AA4208D0074C01003A002000FEF7CEF942
:1040500080212200CAE70022C8E7C046581300208A
:104060007D3000107413002010B50400FFF730F904
:10407000002801D1002010BDFFF732F90028F9D146
:10408000B2208000444303480019037901201840FE
:10409000F1E7C04690100020B2239B00584310B5B2
:1040A000024B1030C01800F07FFB10BD90100020B4
:1040B000F0B5B225AD0045432C00C646174E10346E
:1040C000A41900B592B2200000F0F0FB0700200018
:1040D00000F086FB3F2803D8380004BC9046F0BDB2
:1040E0007319D97800209846FFF762FE0028F3D0B4
:1040F000200000F075FB3F280AD992239B00EA18A4
:1041000043469219D97800204023FFF779FEE3E770
:1041100043460020D978FFF75FFEDDE790100020CE
:10412000F8B50500FFF7D4F8002801D10020F8BD4C
:10413000FFF7D6F80028F9D1B224A4006C4325007B
:10414000144E2435AD19280000F02EFB0028EDD0C8
:104150003719B9780020FFF72BFE0028E6D0A223FC
:104160009B009C466444A41921002800402200F0D2
:104170009DFBB978051E08D0030022000020FFF740
:104180003FFE0028D2D02800D1E70020FFF724FE10
:10419000CCE7C0469010002070B5B224A400444380
:1041A000094B2434E418050092B2200000F03CFCD6
:1041B0000600200000F0F8FA3F2801D8300070BD5A
:1041C0002800FFF7ADFFF9E790100020B2239B0015
:1041D000584310B5024B2430C01800F001FB10BD4D
:1041E00090100020B222F0B51B4C83B09200002149
:1041F0002000FEF7F5F8FF236371184B8026002599
:10420000E380012708232100200076002373278103
:10421000320038310095073B103000F087FA21005A
:10422000200039313200FF3100970123243000F0A3
:104230007DFA8E239B00E6183000FCF725FC9023C6
:104240009B002662E618E5613000FCF71DFC266342
:10425000656303B0F0BDC0469010002000C2FFFFB0
:1042600010B5094C052200212000FEF7B9F8200006
:104270002434103000F088FC200000F085FC01217F
:10428000200000F0A1FC10BD90100020F0B54B798B
:1042900083B00600022B02D18B79022B03D00024BD
:1042A000200003B0F0BD304FBB78002BF7D18B78E6
:1042B00009243B700D784D196B78242B0BD1082AFB
:1042C00002D80FE0A2420DD32B78ED18E4186B78DA
:1042D000A4B2242BF6D0052B21D0042B02D16B796C
:1042E0000A2B2FD0214D280000F07AFA3F28D7D989
:1042F0002E00103EF1780020FFF75AFD0028CFD0A5
:10430000280000F06DFA3F2817D98E239B00EA1889
:10431000F93BF178FF3B0020FFF772FDC0E7290071
:104320003000FFF72BFD0028B9D0AB787B702B78DD
:10433000E418ED18A4B26B78CFE7F1780020FFF70E
:104340004BFDADE70A4B2F78019301330093E91938
:10435000022302223000FFF78DFC00289FD00E348C
:10436000E419A4B2BEE7C04690100020A0100020BF
:1043700092100020F8B56023140012781340002238
:10438000202B14D12D4D637927792E781B023B43C6
:104390009E420CD16378212B36D00AD9222B17D01C
:1043A000232B04D1012944D0032936D00122100047
:1043B000F8BD202BFBD1012928D00329F6D1204BB1
:1043C000002BF3D0A91D0020FEF7B4FA0122EEE77E
:1043D00001292ED00329E9D10126A178E47828000B
:1043E00024020C4331002C71A143243000F0ECFB7B
:1043F000144B002BDAD031006208324021400020FB
:1044000000E000BF0122D2E70129CFD10E4A0723E5
:104410002100FFF733FD0122C9E70C4B002BC5D06B
:10442000E178A37809021943002000E000BF0122CF
:10443000BDE72100FFF70AFD0122B8E79010002038
:104440003529001000000000961000200000000038
:10445000F8B557464E464546DE46E0B55E4C1F0071
:10446000E37881460D008B4265D192239B00E618CC
:1044700010239846A044BAB23100404600F0D4FA66
:10448000564B002B19D06379FF2B16D0002F14D078
:10449000F2199246A34603E00136B2450DD0637986
:1044A00032789A42F8D1404600F092F90028F3D1D0
:1044B0005B46597900E000BFEEE7494B002B05D081
:1044C000404600F085F9002800D177E0404600F032
:1044D00087F93F2859D84246103A9378AB4207D023
:1044E000012420003CBC90469946A246AB46F8BD4C
:1044F0003C4B002B02D0002000E000BFFEF7E8FE9E
:1045000000281DD1384C200000F04EF90028E7D1DA
:10451000002FE5D0BB06E3D1243CA1784846FFF745
:1045200047FC2500041EDBD0A97800230022484662
:10453000FFF766FCD5E7A3788B42D9D00024D0E7FB
:10454000FEF7CEFE284C0028DDD1200000F02CF92B
:104550000028D8D02500243DA9780020FFF728FCAA
:104560000028D0D099239B00E6183100402220007B
:1045700000F09CF9A978002829D00300320000201F
:10458000FFF73EFC0028ABD1BDE74446103CE17884
:104590000020FFF70DFC002801D1A3789EE74046DC
:1045A00000F01EF93F280CD98E229200402342448D
:1045B000E1780020FFF724FCA3788FE7FEF734FBB7
:1045C00084E7E1780020FFF707FCA37886E7002066
:1045D000FFF702FC97E7C0469010002000000000A3
:1045E000292C001000000000B410002010B500209D
:1045F000FEF788FE10BDC04610B5FEF779FE10BD6F
:1046000070B504780500E4070E00E40F16D10378B6
:104610005B0701D5200070BD01213000494200F048
:1046200067FB2C78E407E40F0AD12B785B0708D4EA
:1046300004222B78012413432B7002E00024E9E7C5
:104640000024300000F024FBE4E7C04670B50E0003
:10465000012105004942300000F04AFB2C78640734
:10466000E40F012C04D0300000F012FB200070BDDC
:104670002B78DB0704D404222B7893432B70F2E7CA
:104680000024F0E7437902791B0213435B055A0DBE
:10469000C3789B079B0F022B0DD014D80020012B51
:1046A00008D102394B425941114B9C466144914219
:1046B0004041C0B27047022912D0002040239342EB
:1046C0004041C0B2F6E702394B425941F023002085
:1046D00049429B001940403191424041C0B2E9E754
:1046E000044B9C46624450425041C0B2E2E7C0468F
:1046F000FF03000000FEFFFF8A1870B5914207D249
:104700007F264C78052C04D00C7809198A42F8D8F9
:1047100070BD34008D782C4064000419ED09635598
:104720000C7809198A42ECD8F2E7C046F0B5C646C3
:1047300000B51D0006AB1E788023040088461700D4
:104740001B029A422ED8C068002803D0012149429A
:1047500000F0CEFA2069002803D00121494200F080
:10476000C7FA43462360E3886D04DB0B6D0CDB0363
:104770002B43E3805B04F6015B0E3343E3710023BC
:10478000E0686381A7802381002801D000F080FACF
:1047900020690124002801D000F07AFA200004BC2E
:1047A0009046F0BD0024F9E7038942899BB292B29A
:1047B0008188934207D39B1A9BB2081C994200D967
:1047C000181C80B270474800821A9B189BB2F4E70D
:1047D00003894089181A43425841C0B27047C04605
:1047E000038942899BB292B28188934207D39B1A74
:1047F0009BB20020994201D9CB1A98B27047480069
:10480000821A9B189BB2F4E770B5040000690D0092
:10481000002803D00121494200F06AFA2089618909
:1048200080B289B2A388884230D25A00521A8218C4
:1048300092B2002A2ED0934208D2984231D3C11AA4
:1048400089B261818B4203D8C91A89B28B42FBD9E4
:104850002368E2889C465204520C5143280061446C
:10486000FDF7C4FD6189A38889B24A1C92B2012573
:10487000914212D900225B00D21A92B22069628161
:10488000002801D000F004FA280070BD421A92B24C
:10489000002AD0D10025628992B25B009A42EDDBFA
:1048A000EAE7C01881B26181CCE7C046F0B5464660
:1048B0004F46D646C0B50600006988469146002896
:1048C00003D00121494200F013FA338974899BB265
:1048D000A4B2B788A3424CD27D002D1B5D19ADB2A6
:1048E000002D4AD0AF4205D2BB4254D2DB199CB254
:1048F0003D0074814B46A9454BD89DB2A74203D8D1
:10490000E41BA4B2A742FBD9F288381B5204530C13
:1049100019009946336861439C4680B26144A842BD
:1049200031D24B46584383B21A0040469A46FDF7AF
:104930005DFD4B464046EF1BE4195C435044A2B278
:104940003168FDF753FD7289B78892B253199BB253
:1049500079009A4213D95B1A9BB23069738100289F
:1049600001D000F095F928001CBC90469946A2465B
:10497000F0BD1D1BADB2002DB4D173899BB279007F
:104980008B42EADBE7E74A4640466A43FDF72EFDE5
:10499000D9E72B1CB1E7DC1BA4B2A9E7F8B50400EA
:1049A000C0680E00002803D00121494200F0A0F9A0
:1049B00025892289618992B289B2ADB2A3888A42DF
:1049C0002CD3521A92B2934209D8E779FF0906D143
:1049D000E068002801D000F05BF93800F8BD28003D
:1049E0009D4203D3C01A80B29842FBD22368E2886A
:1049F0009C465204520C504331006044FDF7F6FCD3
:104A0000A2886B1C9BB252009D4204D99B1A9BB298
:104A100023810127DCE79342FADBF7E75800411ACC
:104A2000521892B2CFE7C046F0B5DE46454657462B
:104A30004E46E0B58B4683B00500141E6CD0C068AE
:104A4000002803D00121494200F052F92F89EA7968
:104A50006B89BFB29BB2AE88D20941D19F4265D269
:104A60007200D31AFB189BB200229046B34231D297
:104A7000F31A1A1C9BB2A34200D9221C93B2984687
:104A8000E9884346FB189BB2490499464B0C9A4669
:104A90003C00B74203D3A41BA4B2B442FBD250469D
:104AA0002B6860439C46311B89B26044414549D321
:104AB0005246434659465A43FDF798FCAB885B0083
:104AC0004F4501D8994503DB4A46D31A9BB2994614
:104AD0004B462B81E868002820D000F0D9F81DE073
:104AE000E9884A04520C9246B44222D29F423ED3F5
:104AF000FA1A92B2710012198A4208DB9A1992B21C
:104B0000171BBFB29146BB4239D97F1ABFB2E31916
:104B10009BB29946A046BBE700239846404603B0A7
:104B20003CBC90469946A246AB46F0BDFB1A9BB2F0
:104B30009AE75046A21B50438344002E1CD1002309
:104B40009846C7E7534659438BB21A00594601931A
:104B5000FDF74CFC42465146921BA2184A43019B6A
:104B600092B25B4419002868FDF740FCA6E771008B
:104B7000CA1ABA1892B2BEE71F00B04681E7A04633
:104B8000B94200DD84E7C0E710B50400C068002822
:104B900003D00121494200F0ABF82069002803D07E
:104BA0000121494200F0A4F80023E06863812381D9
:104BB000002801D000F06CF82069002801D000F036
:104BC00067F8012010BDC04670B50400C0680D0034
:104BD000002803D00121494200F08AF8206900280A
:104BE00003D00121494200F083F87F21E379ED01F0
:104BF0001940E0682943E171002801D000F048F82D
:104C00002069002801D000F043F8012070BDC046A3
:104C100010B5830727D00378002B26D0030003218B
:104C200002E01A78002A1CD001330B42F9D119682E
:104C30000F4A104C8A188A4322420FD10433196854
:104C40000B4A8A188A43224208D104331968084A59
:104C50008A188A432242F1D000E001331A78002AF0
:104C6000FBD1181A10BD0300E1E70020FAE7C046A7
:104C7000FFFEFEFE80808080F8B5C0460000000088
:104C800001B40248844601BC604700BFE90200202D
:104C900001B40248844601BC604700BF49020020BD
:104CA00001B40248844601BC604700BFF10A0020FD
:104CB00001B40248844601BC604700BF9D03002048
:104CC00001B40248844601BC604700BFDD0D0020EE
:104CD00001B40248844601BC604700BFC100002007
:104CE00001B40248844601BC604700BF190B002094
:104CF00001B40248844601BC604700BFB9010020EE
:104D000001B40248844601BC604700BF090100208D
:104D100001B40248844601BC604700BFB50B0020C7
:104D200001B40248844601BC604700BF510B00201B
:104D300001B40248844601BC604700BF5D0B0020FF
:104D400006005250197CA0B6684D00100900525060
:104D500000000002804D001048656C6C6F20576F9A
:104D6000726C640A00000000546869732069732043
:104D70006120746573742062696E6172792E00001F
:104D80004F6E2D626F617264204C4544000000003C
:104D90004E6F207370696E6C6F636B732061726508
:104DA00020617661696C61626C6500004E6F2075F0
:104DB000736572204952517320617265206176617A
:104DC000696C61626C65000048617264776172654C
:104DD00020616C61726D20256420616C7265616474
:104DE0007920636C61696D656400000048617264DC
:104DF00020617373657274000A2A2A2A2050414E7A
:104E00004943202A2A2A0A000A00000006005250BC
:104E1000BBFF3CB6504E001006005250E182887F26
:104E2000384E001006005250D3F07542304E00103C
:104E300052656C6561736500626F6F74325F7732C3
:104E40003571303830000000312E352E3000000032
:104E50007069636F000000006C65642D7769746889
:104E60002D666F722D64656C617900004A756C2047
:104E700032332032303233000D0A00000600525027
:104E800053B4F4A1A84E0010080052509200000044
:104E90005541525420737464696E00005541525458
:104EA000207374646F757400554152542073746498
:104EB000696E202F207374646F7574008928001048
:104EC0008D28001099280010C5280010C128001056
:104ED000000000000600525053B4F4A1E04E001050
:104EE00055534220737464696E202F207374646F6D
:104EF0007574000052617370626572727920506936
:104F0000000000005069636F00000000426F617292
:104F10006420434443000000526573657400000040
:104F200009025400030100807D080B000202020008
:104F3000000904000001020200040524002001050C
:104F40002401000104240202052406000107058152
:104F50000308001009040100020A0000000705020E
:104F60000240000007058202400000090402000020
:104F7000FF00010512010002EF0201408A2E0A0023
:104F8000000101020301000000000000F44E0010C7
:104F9000044F0010201A00200C4F0010184F001072
:104FA000556E68616E646C6564204952512030789A
:104FB00025780A00657020256420257320776173A9
:104FC00020616C726561647920617661696C6162EF
:104FD0006C65000043616E277420636F6E74696EA8
:104FE00075652078666572206F6E20696E616374E6
:104FF0006976652065702025642025730000000017
:105000000A3400104C360010E83500100A34001045
:10501000CA350010B2350010AE34001058340010FC
:105020004C34001000390010E6380010043700102E
:10503000CC38001004370010B4380010A03800102D
:10504000043700108C38001020390010043700108D
:10505000C4390010983900108C3900100437001042
:10506000043700106E390010983900100437001012
:105070000437001004370010043700100437001004
:1050800004370010043700104A390010E5410010C1
:10509000614200108D420010754300105144001011
:0450A000000000000C
:1050A400404D00104C4D0010AC020010A002001046
:1050B400940200100C4E001088020010184E0010CC
:1050C400244E00107C4E0010884E0010D44E001068
:1050D400030010B50068EFF3108472B60268002A6A
:1050E400FCD0BFF35F8F04229A56002A0BDB002901
:1050F4000FD000200A601B68BFF35F8F00221A6084
:1051040084F3108810BDD0221206126801201A718F
:10511400F1E70020EFE7C046F0B5C646160000B53B
:1051240004001F000268EFF3108172B61368002BAD
:10513400FCD0BFF35F8F0423E356002B36DB2268D9
:10514400BFF35F8F0020106081F31088D022002508
:10515400120655579D4203D1002004BC9046F0BD71
:10516400002398460CE02268BFF35F8F414611602C
:1051740083F310883000390000F05AFE0028EBD188
:105184002268EFF3108372B611680029FCD0BFF3D4
:105194005F8F22797F2AE6D925712268BFF35F8F5A
:1051A4000021116083F310880120D6E7D0231B0669
:1051B4001B6823712368BFF35F8F00221A6081F399
:1051C40010880120C9E7C046F0B5C64600B50F00F7
:1051D400060000F035FEFA2204000D0092000023C0
:1051E4003800002100F01CFE24184D41002D2CDB5A
:1051F400D0231B061B68002798460BE03268BFF3D8
:105204005F8F176083F310882000290000F010FEE0
:10521400002818D13268EFF3108372B611680029A0
:10522400FCD0BFF35F8F32797F2AE7D942463271CF
:105234003268BFF35F8F0021116083F3108801206F
:1052440004BC9046F0BD0020FAE70124014D6442FD
:10525400CEE7C046FFFFFF7F0268EFF3108172B60E
:105264001368002BFCD0BFF35F8FFF230371036827
:10527400BFF35F8F00221A6081F3108840BF70472C
:10528400084810B50378002B0AD180230649074A41
:105294005B051C68CC5004339342FAD1012303709C
:1052A40010BDC046331A0020201400100001001065
:1052B40010B5024B0133984710BDC046201400209E
:1052C400054B1A6880239B005340C0229200134070
:1052D400024A13607047C0460C8001400C900140A4
:1052E400034B1A68C0239B009343024A1360704720
:1052F4000C8001400C900140F0B5D6464F4646461E
:105304001423C0B51827984681460D0018882449EF
:105314003B881400984743468246224918883B88B4
:10532400984743462049060018883B88984780469A
:10533400FFF7A6FFD047B047FFF7C2FF002C24D0E9
:10534400C020220040050826163F11E04B461B787A
:10535400013C036601239C46E144002905D0002A50
:1053640003D0036E013A2B700135130023430CD094
:105374003100836A19401F42EFD0002CEDD0131B7B
:105384000D2BE3D90029EAD1F2E7FFF7A9FFC047C3
:10539400FFF78EFF1CBC90469946A246F0BDC0465E
:1053A40049460000455800004643000000231C4ABB
:1053B40010B59360D3601B4A00219360D3601A4AEE
:1053C4001A489360D3601A4A9360D360194A936071
:1053D400D360194A9360D360184A9360D360184A23
:1053E4009360D360174A9360D360174A9360D36085
:1053F400164A9360D360164A9360D360154A93604B
:10540400D360154A9360D360144A9360D360F0224A
:10541400920000F0F5FC124B124A1A6010BDC0460F
:1054240000001050080010501000105010160020FA
:105434001800105020001050280010503000105058
:1054440038001050400010504800105050001050C8
:105454005800105060001050680010507000105038
:10546400D819002080011050F0B55746DE464E464C
:105474004546E0B5264B87B09F6D002F24D0254BC1
:105484000024994601239B46234B01269A4604E0B7
:1054940001347600E4B2202C16D03E42F8D04B46BC
:1054A4005A469E6563085B00A2439B185B01534404
:1054B4001800984600F0BCFB00280CD10134B74317
:1054C400E4B27600002FE6D107B03CBC9046994682
:1054D400A246AB46F0BD42464346D28A9B7802A818
:1054E4000192002106220630009300F089FCE0239B
:1054F40003ADDB002B80019A009B280001212B7156
:10550400AA6000F0BDFB404600F02AFBD6E7C04687
:105514000000115000301150D01500209823F0B530
:105524008024CB4AA402D55885B02C401026002CE8
:105534007AD0C84BC84C9A6AC84B00261A603B23E1
:10554400E35C022B00D1FCE07B23E35C022B00D163
:1055540008E1BB23E35C022B00D115E1FB23E35CF0
:10556400022B00D122E13C23FF33E35C022B00D168
:105574002EE17C23FF33E35C022B00D13DE1BC230D
:10558400FF33E35C022B00D14CE1FC23FF33E35CEB
:10559400022B00D180E1B24BE35C022B00D190E1FD
:1055A400B04BE35C022B00D19FE1AF4BE35C022BD9
:1055B40000D1AEE1AD4BE35C022B00D1BDE1AC4BBD
:1055C400E35C022B00D1CCE1AA4BE35C022B00D1BB
:1055D4009DE0A94BE35C022B00D1D7E1A74BE35C30
:1055E400022B00D1E9E1002E08D1A54B1B78002B3A
:1055F40004D18021A34A90338902D150944B0A22CA
:105604009C6C6B460021981D00F0FAFBC0236405D6
:1056140001AE9B00640D746033803000012180244E
:1056240000F02EFB984EA402EB0600D56BE080231D
:105634005B021D4216D0012223211C43864B01A884
:105644005A54DA7000234380C023904ADB0003805D
:1056540002AB42CA42C3012100F012FB8022894BF3
:1056640092021A6580235B011D4233D18023DB0142
:105674001D421CD180231B021D4204D1AC4200D028
:10568400B5E105B0F0BD1C436B460A220021981D0C
:1056940000F0B6FBA02301AEDB0033800121300013
:1056A40000F0EEFA8022774B12011A65E6E71C43FC
:1056B4006B460A220021981D00F0A2FB802301AE54
:1056C400DB0033800121300000F0DAFA10226D4B48
:1056D4001A65CFE700221C435D4B01AE1A60FFF749
:1056E40065FE6B460A220021981D00F089FB802389
:1056F4005B0033800121300000F0C2FA8022614B4C
:1057040012031A65B2E7FFF7AFFE34008FE7604B70
:10571400E75C002F00D15CE70233E25C002A00D092
:105724005DE1554BE35C022B00D12EE1534BE35C6E
:10573400022B00D062E7574BE35C002B00D15DE7FE
:1057440040E13833E65C002E00D1FDE60233E25C32
:10575400002A00D1F8E600222000E254203000F0B4
:1057640031FAF1E67833E35C002B00D1F1E67C22D8
:10577400A15C1E00002900D1EBE600232000A35405
:10578400603000F01FFAE4E6B833E35C002B00D18C
:10579400E4E6BC22A15C1E00002900D1DEE6002361
:1057A4002000A354A03000F00DFAD7E6F833E35CF0
:1057B400002B00D1D7E6FC22A15C1E00002900D1F9
:1057C400D1E600232000A354E03000F0FBF9CAE640
:1057D4003933FF33E35C002B00D1CAE69E2252002A
:1057E400A15C1E00002900D1C3E620000023213063
:1057F400A354FF3000F0E6F9BBE67933FF33E35CF2
:10580400002B00D1BBE6BE225200A15C1E00002981
:1058140000D1B4E6200000236130A354FF3000F02F
:10582400D1F9ACE6B933FF33E35C002B00D1ACE62D
:10583400DE225200A15C1E00002900D1A5E6200052
:105844000023A130A354FF3000F0BCF99DE6C0460C
:105854000000115000400540D0150020C81500205C
:105864003B0200007B020000BB020000FB020000C0
:105874003B0300007B030000BB030000FB030000AC
:10588400321A0020003011501000020000001050A5
:105894007A030000FA030000F933FF33E35C002BC2
:1058A40000D178E6FE225200A15C1E00002900D13E
:1058B40071E620000023E130A354FF3000F082F9A8
:1058C40069E64D4BE35C002B00D169E68F22920020
:1058D400A15C1E00002900D162E60023A3548823A2
:1058E4009B00E01800F06EF95AE6444BE35C002B91
:1058F40000D15AE69F229200A15C1E00002900D12B
:1059040053E60023A35498239B00E01800F05AF9AF
:105914004BE63B4BE35C002B00D14BE6AF229200FD
:10592400A15C1E00002900D144E60023A354A8234F
:105934009B00E01800F046F93CE6324BE35C002B98
:1059440000D13CE6BF229200A15C1E00002900D1D8
:1059540035E60023A354B8239B00E01800F032F985
:105964002DE6294BE35C002B00D12DE6CF229200DB
:10597400A15C1E00002900D126E60023A354C823FD
:105984009B00E01800F01EF91EE63E001F4BE35C8E
:10599400002B00D122E6EF239B00E25C002A00D119
:1059A400C4E60022E2541C3BE01800F00BF9184B4B
:1059B400E35C022B00D021E6BDE6164BE35C002B32
:1059C40000D110E6FF239B00E25C002A00D115E61B
:1059D4000022E2541C3BE01800F0F4F80EE600222A
:1059E400E254D8239B00E01800F0ECF899E621007B
:1059F4000948694000F00CFA3A0200007A020000FB
:105A0400BA020000FA0200003A030000BA030000E0
:105A1400FB030000FA030000A04F0010F8B5028B4E
:105A2400838A05000F00161C9A4200D91E1C80248C
:105A3400B6B29B1BEA789BB2E400AB823443002AE3
:105A440002D09024A401344301214A40EA706A78C8
:105A5400002A09D0002B02D18023DB011C43002F34
:105A640000D024042000F8BDEB68B8019C46320045
:105A74006044296900F0BCF92B699C468023664484
:105A84001B021C432E61AB8AE4E7C046836870B5F1
:105A940005001C68002900D0240C6B78A405A40D13
:105AA400002B09D1EB8AE318EB822B8BA34201D99B
:105AB4000023AB82200070BDEB6889019C46220064
:105AC4006144286900F094F9EB8AE318EB822B69AE
