:100000000C945A000C946C000C946C000C946C00D2
:100010000C946C000C946C000C946C000C942101FA
:100020000C946C000C946C000C946C000C946C00A0
:100030000C946C000C946C000C946C000C946C0090
:100040000C946C000C946C000C946C000C946C0080
:100050000C946C000C946C000C946C000C946C0070
:100060000C946C000C946C000C946C000C946C0060
:100070000C946C000C946C000C946C000C946C0050
:100080000C946C000C946C000C946C000C946C0040
:100090000C946C000C946C000C946C000C946C0030
:1000A0000C946C000C946C000C946C000C946C0020
:1000B0000C946C0011241FBECFEFD8E0DEBFCDBF83
:1000C00021E0A0E0B1E001C01D92A430B207E1F749
:1000D0000E9446010C945E010C940000613009F00E
:1000E00045C0883070F444B1877021E030E0B90138
:1000F00002C0660F771F8A95E2F7CB01842B84B983
:10010000089598EF980F983070F447B1877021E008
:1001100030E0B90102C0660F771F8A95E2F7CB0184
:10012000842B87B9089590EF980F983070F44AB1F6
:10013000877021E030E0B90102C0660F771F8A9511
:10014000E2F7CB01842B8AB9089598EE980F94308A
:1001500068F44DB1877021E030E0B90102C0660F4C
:10016000771F8A95E2F7CB01842B8DB9089561E062
:1001700086E10E946E0084B5806884BD84B581608C
:1001800084BD84B5826084BD88EC87BD85B58160FF
:1001900085BD85B5846085BD089587BD089510929D
:1001A0000001109201011092020110920301E0EB94
:1001B000F0E0808182608083E1EBF0E0808181600B
:1001C000808380818460808389EF8093B300E0E73F
:1001D000F0E080818260808308959FB7F89481E089
:1001E00040E050E0BA010BC0409100015091010184
:1001F00060910201709103018091B20080E0811151
:10020000F3CF9FBFCB01BA01660F771F881F991FDD
:100210000895CF92DF92EF92FF926B017C010E94D2
:10022000ED00C60ED71EE81EF91E0E94ED006C15EB
:100230007D058E059F05C8F3FF90EF90DF90CF906E
:1002400008951F920F920FB60F9211248F939F93D0
:10025000AF93BF938091000190910101A0910201A1
:10026000B09103010196A11DB11D809300019093EF
:100270000101A0930201B0930301BF91AF919F913F
:100280008F910F900FBE0F901F9018950E94B7008E
:100290000E94CF00789482E30E94CD0068EE73E064
:1002A00080E090E00E9409018FEF0E94CD0068EE8F
:1002B00073E080E090E00E940901EDCFF894FFCF59
:00000001FF
