S01700004763634170706C69636174696F6E312E737265635B
S11300000C945A000C946C000C946C000C946C00CE
S11300100C946C000C946C000C946C000C942101F6
S11300200C946C000C946C000C946C000C946C009C
S11300300C946C000C946C000C946C000C946C008C
S11300400C946C000C946C000C946C000C946C007C
S11300500C946C000C946C000C946C000C946C006C
S11300600C946C000C946C000C946C000C946C005C
S11300700C946C000C946C000C946C000C946C004C
S11300800C946C000C946C000C946C000C946C003C
S11300900C946C000C946C000C946C000C946C002C
S11300A00C946C000C946C000C946C000C946C001C
S11300B00C946C0011241FBECFEFD8E0DEBFCDBF7F
S11300C021E0A0E0B1E001C01D92A430B207E1F745
S11300D00E9446010C9485020C940000613079F46E
S11300E0883068F444B1877021E030E0B90102C07F
S11300F0660F771F8A95E2F7CB01842B84B90895A4
S1130100883068F445B1877021E030E0B90102C05D
S1130110660F771F8A95E2F7CB01842B85B9089582
S1130120883070F445B1877021E030E0B90102C035
S1130130660F771F8A95E2F7CB018095842385B9F2
S11301400895E0EBF0E0808182608083E1EBF0E0F1
S113015080818160808380818460808389EF809343
S1130160B300E0E7F0E080818260808308958F929D
S11301709F92AF92BF92CF92DF92EF92FF923FB7DE
S1130180F89421E060E070E0CB01C12CD12C760121
S11301900EC0C0900001D0900101E0900201F090E7
S11301A003016091B20070E080E090E020E0211152
S11301B0F0CF3FBFCC0CDD1CEE1CFF1C0E94610184
S11301C04B015C016091B30070E080E090E00E941C
S11301D0630120E030E040E05FE30E94A3019B0163
S11301E0AC01C501B4010E949E0188233CF0C70103
S11301F0B6016F5F7F4F8F4F9F4F02C0C701B6019B
S1130200FF90EF90DF90CF90BF90AF909F908F9032
S11302100895CF92DF92EF92FF926B017C010E94CE
S1130220B700C60ED71EE81EF91E0E94B7006C1553
S11302307D058E059F05C8F3FF90EF90DF90CF906A
S113024008951F920F920FB60F9211248F939F93CC
S1130250AF93BF938091000190910101A09102019D
S1130260B09103010196A11DB11D809300019093EB
S11302700101A0930201B0930301BF91AF919F913B
S11302808F910F900FBE0F901F90189561E080E042
S11302900E946E000E94A100789480E090E00E9489
S11302A0800068EE73E080E090E00E94090180E045
S11302B00E94900068EE73E080E090E00E940901E3
S11302C0ECCFE89409C097FB3EF490958095709527
S11302D061957F4F8F4F9F4F9923A9F0F92F96E98E
S11302E0BB279395F695879577956795B795F11103
S11302F0F8CFFAF4BB0F11F460FF1BC06F5F7F4FA0
S11303008F4F9F4F16C0882311F096E911C07723B1
S113031021F09EE8872F762F05C0662371F096E8BA
S1130320862F70E060E02AF09A95660F771F881F89
S1130330DAF7880F9695879597F908950E94100229
S113034008F48FEF08950E94B6010C944B020E94AA
S11303503D0238F00E94440220F0952311F00C94E1
S113036034020C943A0211240C947F020E945C0221
S113037070F3959FC1F3950F50E0551F629FF001F4
S1130380729FBB27F00DB11D639FAA27F00DB11D0D
S1130390AA1F649F6627B00DA11D661F829F222796
S11303A0B00DA11D621F739FB00DA11D621F839F1D
S11303B0A00D611D221F749F3327A00D611D231FF3
S11303C0849F600D211D822F762F6A2F11249F5741
S11303D050409AF0F1F088234AF0EE0FFF1FBB1F44
S11303E0661F771F881F91505040A9F79E3F510503
S11303F080F00C9434020C947F025F3FE4F3983E47
S1130400D4F3869577956795B795F795E7959F5FAC
S1130410C1F7FE2B880F911D9695879597F908953E
S1130420990F0008550FAA0BE0E8FEEF1616170601
S1130430E807F907C0F012161306E407F50798F069
S1130440621B730B840B950B39F40A2661F0232B82
S1130450242B252B21F408950A2609F4A140A695FE
S11304608FEF811D811D089597F99F6780E870E0E3
S113047060E008959FEF80EC089500240A94161616
S1130480170618060906089500240A94121613067E
S1130490140605060895092E0394000C11F488230C
S11304A052F0BB0F40F4BF2B11F460FF04C06F5F28
S11304B07F4F8F4F9F4F089557FD9058440F551FFE
S11304C059F05F3F71F04795880F97FB991F61F0D2
S11304D09F3F79F087950895121613061406551F49
S11304E0F2CF4695F1DF08C0161617061806991FB5
S11304F0F1CF86957105610508940895E894BB27AA
S111050066277727CB0197F90895F894FFCF6B
S9030000FC
